:100000000C9454000C9471000C9471000C947100C9
:100010000C9471000C9471000C9471000C9471009C
:100020000C9471000C9471000C9471000C9471008C
:100030000C9471000C9471000C9471000C9471007C
:100040000C9471000C9471000C9471000C9471006C
:100050000C9471000C9471000C9471000C9471005C
:100060000C9471000C947100001F000000001F0030
:10007000001F101010101F00001F181818181F0064
:10008000001F1C1C1C1C1F00001F1E1E1E1E1F000C
:10009000001F1F1F1F1F1F0003070F1F0F07030055
:1000A000181C1E1F1E1C180011241FBECFEFD8E005
:1000B000DEBFCDBF11E0A0E0B1E0E2E7F3E002C0B7
:1000C00005900D92A431B107D9F721E0A4E1B1E088
:1000D00001C01D92A831B207E1F70E94AA010C9459
:1000E000B7010C94000090931701809316010895B6
:1000F00090931501809314010895CF9360E080E000
:100100000E940E01C0E00AC0E0911401F0911501B7
:10011000EC0FF11D80810E94B000CF5F8091000143
:10012000C81790F3CF910895CF9361E080E00E94CB
:100130000E01C0E00AC0E0911601F0911701EC0F2A
:10014000F11D80810E94B000CF5F80910001C8172F
:1001500090F3CF9108950E947D000E94940008952D
:10016000982F907F95B995B1916095B995B19460AC
:1001700095B92AE62A95F1F700C095B19B7F95B90C
:1001800095B19E7F95B99AE69A95F1F700C020E166
:10019000829FC001112485B985B1816085B985B17F
:1001A000846085B98AE68A95F1F700C085B18B7FB6
:1001B00085B985B18E7F85B99AE69A95F1F700C029
:1001C0000895982F907F95B995B1946095B9EFEC0B
:1001D000F7E03197F1F700C0000095B19B7F95B92A
:1001E000EFECF7E03197F1F700C00000F0E18F9FEE
:1001F000C001112485B985B1846085B98FEC97E081
:100200000197F1F700C0000085B18B7F85B9EFEC55
:10021000F7E03197F1F700C000000895623031F047
:10022000633031F0613029F4805C03C08C5E01C022
:100230008C5A80680E94E1000895EF92FF920F931C
:100240001F93CF93DF937C01862F90E0880F991F37
:10025000880F991F880F991F8064C0E0D0E00DC0FF
:10026000F701EC0FFD1F149101E0080F0E94E1005F
:10027000812F0E94B0002196802FC830D10580F3D5
:10028000DF91CF911F910F91FF90EF900895CF9341
:10029000DF938FE295E70197F1F700C0000015B8F2
:1002A00015B884B1806F84B984B1876084B990E354
:1002B00095B985B1846085B9EFECF7E03197F1F736
:1002C00000C0000085B18B7F85B9EFECF7E0319776
:1002D000F1F700C0000095B985B1846085B98FEC55
:1002E00097E00197F1F700C0000085B18B7F85B9D9
:1002F000EFECF7E03197F1F700C0000080E285B93C
:1003000085B1846085B98FEC97E00197F1F700C063
:10031000000085B18B7F85B9EFECF7E03197F1F7FD
:1003200000C0000088E20E94E1008CE00E94E10031
:1003300060E0C0E00AC0D1E0D60F8C2F90E0885971
:100340009F4F0E941D01C85F6D2FC034A0F3DF9145
:10035000CF9108950E94470181E091E00E947300CF
:1003600081E091E00E9478000E94AB00FDCFF894FC
:02037000FFCFBD
:1003720010484F4C4120434F4D4F20455354C381A9
:04038200533F0000E5
:00000001FF
