S01B0000436F6E74726F6C5F54656D70657261747572612E737265633F
S11300000C9454000C9471000C9471000C947100C5
S11300100C9471000C9471000C9471000C94710098
S11300200C9471000C9471000C9471000C94710088
S11300300C9471000C9471000C94C0020C94710027
S11300400C9471000C9471000C9471000C94710068
S11300500C9471000C9471000C9471000C94710058
S11300600C9471000C947100001F000000001F002C
S1130070001F101010101F00001F181818181F0060
S1130080001F1C1C1C1C1F00001F1E1E1E1E1F0008
S1130090001F1F1F1F1F1F0003070F1F0F07030051
S11300A0181C1E1F1E1C180011241FBECFEFD8E001
S11300B0DEBFCDBF11E0A0E0B1E0EAECFFE002C09A
S11300C005900D92A435B107D9F721E0A4E5B1E07C
S11300D001C01D92AF35B207E1F70E94AD020C9446
S11300E0E3070C94000083E08AB91BB8089581E00B
S11300F08BB908955898089582E08BB9089559985A
S1130100089510927A0010927C000895EAE7F0E0D6
S113011080818068808308958031910529F14CF4B1
S113012084309105A9F088309105C1F00297A1F5BA
S113013009C08034910521F18038910539F1809707
S113014059F518C0EAE7F0E0808181608083089562
S1130150EAE7F0E08081826080830895EAE7F0E0D6
S11301608081836080830895EAE7F0E08081846081
S113017080830895EAE7F0E08081856080830895B4
S1130180EAE7F0E08081866080830895EAE7F0E0A2
S11301908081876080830895EAE7F0E0808180832E
S11301A00895ECE7F0E09081892B808308950F9304
S11301B01F93CF93DF938C01EB010E94810081E0B8
S11301C080937E000E948600C8010E948C00CE01AC
S11301D00E94D100DF91CF911F910F910895EAE71A
S11301E0F0E0808180648083089580917A00829514
S11301F08F7091E08927817090E00895EAE7F0E03C
S11302008081806180830895609178007091790085
S113021080E090E00E94BF0320E030E44CE955E424
S11302200E94760420E030E040E85AE30E9476041D
S11302300E948903CB0108956AE070E00E94E30400
S11302409F938F937F936F9388E391E09F938F9312
S113025080E091E09F938F930E940B058DB79EB72A
S113026008960FB6F8949EBF0FBE8DBF0895CF9227
S1130270DF92EF92FF920E9402037C01BC01990F6E
S1130280880B990B0E94C10320E030E040E251E466
S11302900E9417036093570170935801809359018A
S11302A090935A01F894C7010E941C017894C0905D
S11302B05701D0905801E0905901F0905A01809173
S11302C0350190913601BC01990F880B990B0E945E
S11302D0C103A70196010E94710488232CF00E9497
S11302E077000E947F001BC08091330190913401FC
S11302F0BC01990F880B990B0E94C1039B01AC01AF
S1130300C701B6010E94710488232CF00E947C006E
S11303100E947A0004C00E947F000E947A00FF902D
S1130320EF90DF90CF90089580E091E00E949D01CE
S113033081E291E00E94A201089590935E0180936E
S11303405D01089590935C0180935B010895CF93C0
S113035060E080E00E94260280913701882379F0D2
S1130360C0E0E0915B01F0915C01EC0FF11D808134
S11303700E94E001CF5F80913701C81790F3CF91BD
S11303800895CF9361E080E00E94260280913701B6
S1130390882379F0C0E0E0915D01F0915E01EC0FFB
S11303A0F11D80810E94E001CF5F80913701C81761
S11303B090F3CF9108950E94A7010E94C10108956E
S11303C0982F907F95B9289A2A9A2AE62A95F1F7C8
S11303D000C02A9828989AE69A95F1F700C020E17F
S11303E0829FC001112485B9289A2A9A8AE68A959F
S11303F0F1F700C02A9828989AE69A95F1F700C078
S11304000895982F907F95B92A9AEFECF7E03197E9
S1130410F1F700C000002A98EFECF7E03197F1F70C
S113042000C00000F0E18F9FC001112485B92A9A11
S11304308FEC97E00197F1F700C000002A98EFECE9
S1130440F7E03197F1F700C000000895623031F011
S1130450633031F0613029F4805C03C08C5E01C0EC
S11304608C5A80680E9401020895FF920F931F9393
S1130470CF93DF93660F660F660F6064EC01689498
S1130480FF24F3F8F60EFE01049111E0160F862FF7
S11304900E940102802F0E94E0012196612F1F110A
S11304A0F2CFDF91CF911F910F91FF9008951F9389
S11304B0CF93DF938FE295E70197F1F700C0000037
S11304C015B815B884B1806F84B984B1876084B9D4
S11304D080E385B92A9AEFECF7E03197F1F700C091
S11304E000002A98EFECF7E03197F1F700C0000024
S11304F085B92A9A8FEC97E00197F1F700C00000C4
S11305002A98EFECF7E03197F1F700C0000080E2A1
S113051085B92A9A8FEC97E00197F1F700C00000A3
S11305202A98EFECF7E03197F1F700C0000088E279
S11305300E9401028CE00E940102C8E6D0E060E063
S113054011E0160FCE010E9435022896612F183053
S1130550B9F7DF91CF911F9108950E9457020E942D
S1130560FB020E9494010E9473008AEF87BD82E01F
S113057084BD85BD80936E0078940E943701FDCFC1
S11305801F920F920FB60F9211242F933F934F9304
S11305905F936F937F938F939F93AF93BF93EF93E7
S11305A0FF938091540190915501019690935501C8
S11305B08093540180915401909155018F38974054
S11305C049F40E94DB0181E08093560110925501A9
S11305D010925401FF91EF91BF91AF919F918F9130
S11305E07F916F915F914F913F912F910F900FBE2B
S11305F00F901F90189560E070E080E490E00E94F6
S1130600D70008950E94EF000E94F500892BE1F7BE
S11306100E94FE000E940401853F21E0920714F02D
S113062084EF91E0992314F480E090E008950E940F
S11306302B030C9437040E94300458F00E942904C0
S113064040F029F45F3F29F00C94200451110C94DC
S11306506B040C9426040E94480468F39923B1F3B4
S1130660552391F3951B550BBB27AA2762177307D4
S1130670840738F09F5F5F4F220F331F441FAA1F68
S1130680A9F335D00E2E3AF0E0E832D09150504024
S1130690E695001CCAF72BD0FE2F29D0660F771FD2
S11306A0881FBB1F261737074807AB07B0E809F0B8
S11306B0BB0B802DBF01FF2793585F4F3AF09E3F3D
S11306C0510578F00C9420040C946B045F3FE4F320
S11306D0983ED4F3869577956795B795F7959F5F80
S11306E0C9F7880F911D9695879597F90895E1E0CC
S11306F0660F771F881FBB1F621773078407BA072B
S113070020F0621B730B840BBA0BEE1F88F7E09585
S113071008950E9490036894B1110C946B04089599
S11307200E94500488F09F5798F0B92F9927B75129
S1130730B0F0E1F0660F771F881F991F1AF0BA9581
S1130740C9F714C0B13091F00E946A04B1E0089571
S11307500C946A04672F782F8827B85F39F0B93F63
S1130760CCF3869577956795B395D9F73EF4909534
S11307708095709561957F4F8F4F9F4F0895E894B2
S113078009C097FB3EF490958095709561957F4FD5
S11307908F4F9F4F9923A9F0F92F96E9BB27939583
S11307A0F695879577956795B795F111F8CFFAF493
S11307B0BB0F11F460FF1BC06F5F7F4F8F4F9F4FC4
S11307C016C0882311F096E911C0772321F09EE822
S11307D0872F762F05C0662371F096E8862F70E088
S11307E060E02AF09A95660F771F881FDAF7880F62
S11307F09695879597F90895990F0008550FAA0BB8
S1130800E0E8FEEF16161706E807F907C0F012161F
S11308101306E407F50798F0621B730B840B950B22
S113082039F40A2661F0232B242B252B21F4089577
S11308300A2609F4A140A6958FEF811D811D089514
S113084097F99F6780E870E060E008959FEF80EC7F
S1130850089500240A941616170618060906089522
S113086000240A9412161306140605060895092E88
S11308700394000C11F4882352F0BB0F40F4BF2BF7
S113088011F460FF04C06F5F7F4F8F4F9F4F089537
S113089057FD9058440F551F59F05F3F71F047952D
S11308A0880F97FB991F61F09F3F79F08795089512
S11308B0121613061406551FF2CF4695F1DF08C031
S11308C0161617061806991FF1CF8695710561054E
S11308D008940895E894BB2766277727CB0197F9F6
S11308E008950E94FC0308F48FEF08950E94890480
S11308F00C9437040E94290438F00E94300420F03C
S1130900952311F00C9420040C94260411240C94C7
S11309106B040E94480470F3959FC1F3950F50E057
S1130920551F629FF001729FBB27F00DB11D639F9D
S1130930AA27F00DB11DAA1F649F6627B00DA11D43
S1130940661F829F2227B00DA11D621F739FB00DE9
S1130950A11D621F839FA00D611D221F749F332759
S1130960A00D611D231F849F600D211D822F762FF2
S11309706A2F11249F5750409AF0F1F088234AF0CF
S1130980EE0FFF1FBB1F661F771F881F915050403B
S1130990A9F79E3F510580F00C9420040C946B043D
S11309A05F3FE4F3983ED4F3869577956795B795C2
S11309B0F795E7959F5FC1F7FE2B880F911D9695DC
S11309C0879597F9089597FB072E16F4009407D09E
S11309D077FD09D00E94F70407FC05D03EF49095FA
S11309E081959F4F0895709561957F4F0895AA1B37
S11309F0BB1B51E107C0AA1FBB1FA617B70710F006
S1130A00A61BB70B881F991F5A95A9F78095909537
S1130A10BC01CD010895AEE0B0E0E1E1F5E00C9455
S1130A20BA070D891E8986E08C831A8309838FEFA8
S1130A309FE79E838D83AE01475E5F4F6F89788DFC
S1130A40CE0101960E942E052F813885F801E20F10
S1130A50F31F10822E96E4E00C94D607ACE0B0E0CD
S1130A60E4E3F5E00C94AC077C016B018A01FC0122
S1130A7017821682838181FFBDC1CE0101964C018C
S1130A80F7019381F60193FD859193FF81916F01A5
S1130A90882309F4ABC1853239F493FD859193FF22
S1130AA081916F01853229F4B70190E00E94160705
S1130AB0E7CF512C312C20E02032A0F48B3269F0A6
S1130AC030F4803259F0833269F420612CC08D32C5
S1130AD039F0803339F4216026C02260246023C0B9
S1130AE0286021C027FD27C030ED380F3A3078F454
S1130AF026FF06C0FAE05F9E300D1124532E13C06A
S1130B008AE0389E300D1124332E20620CC08E32C0
S1130B1021F426FD6BC1206406C08C3611F42068D4
S1130B2002C0883641F4F60193FD859193FF8191CB
S1130B306F018111C1CF982F9F7D9554933028F474
S1130B400C5F1F4FFFE3F9830DC0833631F0833709
S1130B5071F0833509F05BC022C0F801808189837C
S1130B600E5F1F4F44244394512C540115C0380187
S1130B70F2E06F0E711CF801A080B18026FF03C063
S1130B80652D70E002C06FEF7FEFC5012C870E94D6
S1130B900B072C0183012C852F77222E17C03801D7
S1130BA0F2E06F0E711CF801A080B18026FF03C033
S1130BB0652D70E002C06FEF7FEFC5012C870E94A6
S1130BC000072C012C852068222E830123FC1BC0E6
S1130BD0832D90E048165906B0F4B70180E290E006
S1130BE00E9416073A94F4CFF50127FC859127FE5D
S1130BF081915F01B70190E00E94160731103A9489
S1130C00F1E04F1A51084114510471F7E5C08436DC
S1130C1011F0893639F5F80127FF07C06081718129
S1130C20828193810C5F1F4F08C060817181072E00
S1130C30000C880B990B0E5F1F4F2F76722E97FFB7
S1130C4009C090958095709561957F4F8F4F9F4F08
S1130C502068722E2AE030E0A4010E944E07A82EDC
S1130C60A81844C0853729F42F7EB22E2AE030E03C
S1130C7025C0F22FF97FBF2E8F36C1F018F48835C6
S1130C8079F0B4C0803719F0883721F0AFC02F2F26
S1130C902061B22EB4FE0DC08B2D8460B82E09C025
S1130CA024FF0AC09F2F9660B92E06C028E030E0CA
S1130CB005C020E130E002C020E132E0F801B7FED7
S1130CC007C060817181828193810C5F1F4F06C0D0
S1130CD06081718180E090E00E5F1F4FA4010E944B
S1130CE04E07A82EA818FB2DFF777F2E76FE0BC08B
S1130CF0372D3E7FA51450F474FE0AC072FC08C060
S1130D00372D3E7E05C0BA2C372D03C0BA2C01C046
S1130D10B52C34FF0DC0FE01EA0DF11D8081803336
S1130D2011F4397E09C032FF06C0B394B39404C0F1
S1130D30832F867809F0B39433FD13C030FF06C0C7
S1130D405A2CB31418F4530C5B18B32CB31468F472
S1130D50B70180E290E03C870E941607B3943C857B
S1130D60F5CFB31410F43B1801C0312C34FF12C07A
S1130D70B70180E390E03C870E9416073C8532FF70
S1130D8017C031FD03C088E790E002C088E590E019
S1130D90B7010CC0832F867859F031FF02C08BE273
S1130DA001C080E237FD8DE2B70190E00E94160792
S1130DB0A51438F4B70180E390E00E9416075A9412
S1130DC0F7CFAA94F401EA0DF11D8081B70190E0F8
S1130DD00E941607A110F5CF332009F451CEB701B4
S1130DE080E290E00E9416073A94F6CFF7018681DC
S1130DF0978102C08FEF9FEF2C96E2E10C94C80715
S1130E00FC010590615070400110D8F780959095D1
S1130E108E0F9F1F0895FC016150704001900110D6
S1130E20D8F7809590958E0F9F1F08950F931F9369
S1130E30CF93DF93FB01238121FD03C08FEF9FEF4D
S1130E4028C022FF16C0468157812481358142176C
S1130E50530744F4A081B1819D012F5F3F4F31833B
S1130E6020838C93268137812F5F3F4F37832683DE
S1130E7010C0EB01092F182F0084F185E02D09958E
S1130E80892BE1F68E819F8101969F838E83812F2A
S1130E90902FDF91CF911F910F910895FA01AA2706
S1130EA0283051F1203181F1E8946F936E7F6E5FA9
S1130EB07F4F8F4F9F4FAF4FB1E03ED0B4E03CD057
S1130EC0670F781F891F9A1FA11D680F791F8A1F3A
S1130ED0911DA11D6A0F711D811D911DA11D20D0A1
S1130EE009F468943F912AE0269F11243019305D5B
S1130EF03193DEF6CF010895462F4770405D41934C
S1130F00B3E00FD0C9F7F6CF462F4F70405D4A3398
S1130F1018F0495D31FD4052419302D0A9F7EACF60
S1130F20B4E0A6959795879577956795BA95C9F78F
S1130F3000976105710508959B01AC010A2E069482
S1130F405795479537952795BA95C9F7620F731F3B
S1130F50841F951FA01D08952F923F924F925F9278
S1130F606F927F928F929F92AF92BF92CF92DF92B5
S1130F70EF92FF920F931F93CF93DF93CDB7DEB71A
S1130F80CA1BDB0B0FB6F894DEBF0FBECDBF0994AE
S1130F902A88398848885F846E847D848C849B8405
S1130FA0AA84B984C884DF80EE80FD800C811B8113
S1130FB0AA81B981CE0FD11D0FB6F894DEBF0FBE42
S10D0FC0CDBFED010895F894FFCFB2
S1130FCA2020202020202020202020202020202013
S1130FDA2020202020202020202020202020202003
S1130FEA00436C696D6174697A61646F723A202096
S1130FFA202000180011001054454D503A20256451
S113100A2E25642043202020202020202020202058
S107101A202020006E
S9030000FC
