S01B0000436F6E74726F6C5F54656D70657261747572612E737265633F
S11300000C9434000C943E000C943E000C943E007E
S11300100C943E000C943E000C943E000C943E0064
S11300200C943E000C943E000C943E000C943E0054
S11300300C943E000C943E000C943E000C943E0044
S11300400C943E000C943E000C943E000C943E0034
S11300500C943E000C943E000C943E000C943E0024
S11300600C943E000C943E0011241FBECFEFD8E048
S1130070DEBFCDBF0E94BF000C940B010C940000A6
S113008010927A0010927C000895EAE7F0E08081F3
S11300908068808308958031910529F14CF484307F
S11300A09105A9F088309105C1F00297A1F509C026
S11300B08034910521F18038910539F1809759F503
S11300C018C0EAE7F0E08081816080830895EAE760
S11300D0F0E08081826080830895EAE7F0E0808127
S11300E0836080830895EAE7F0E080818460808300
S11300F00895EAE7F0E08081856080830895EAE767
S1130100F0E08081866080830895EAE7F0E08081F2
S1130110876080830895EAE7F0E080818083089512
S1130120ECE7F0E09081892B808308950E944000E1
S113013081E080937E000E94450080E890E00E9468
S11301404B0080E090E00E9490000895EAE7F0E020
S1130150808180648083089580917A0082958F7075
S113016091E08927817090E00895EAE7F0E08081CA
S11301708061808308958091780090E008958FEFE6
S113018084B90E94CC00C1E00E94D3004997E1F7F2
S113019085B18C2785B9F8CF60E070E080E890E005
S11301A00E94960008950E94A6000E94AC00892B2C
S11301B0E1F70E94B5000E94BB006AE070E00E9473
S11301C0E300CB01089597FB072E16F4009407D0A3
S11301D077FD09D00E94F70007FC05D03EF4909506
S11301E081959F4F0895709561957F4F0895AA1B3F
S11301F0BB1B51E107C0AA1FBB1FA617B70710F00E
S1130200A61BB70B881F991F5A95A9F7809590953F
S10D0210BC01CD010895F894FFCF5E
S9030000FC
