:100000000C9434000C9449000C9449000C94490061
:100010000C9449000C9449000C9449000C9449003C
:100020000C9449000C9449000C9449000C9449002C
:100030000C9449000C9449000C9449000C9449001C
:100040000C9449000C9449000C9449000C9449000C
:100050000C9449000C9449000C9449000C944900FC
:100060000C9449000C94490011241FBECFEFD8E036
:10007000DEBFCDBF11E0A0E0B1E0EEE4F3E002C0EE
:1000800005900D92A030B107D9F70E9442010C945F
:10009000A5010C94000010927A0010927C00089543
:1000A000EAE7F0E0808180688083089580319105DF
:1000B00029F14CF484309105A9F088309105C1F004
:1000C0000297A1F509C08034910521F1803891058E
:1000D00039F1809759F518C0EAE7F0E08081816036
:1000E00080830895EAE7F0E080818260808308954C
:1000F000EAE7F0E08081836080830895EAE7F0E03A
:100100008081846080830895EAE7F0E080818560E3
:1001100080830895EAE7F0E0808186608083089517
:10012000EAE7F0E08081876080830895EAE7F0E005
:10013000808180830895ECE7F0E09081892B8083B3
:1001400008950E944B0081E080937E000E94500041
:1001500080E890E00E94560080E090E00E949B00C2
:100160000895EAE7F0E080818064808308958091BB
:100170007A0082958F7091E08927817090E00895D0
:10018000EAE7F0E0808180618083089580917800C3
:1001900090E00895EF92FF920F931F93CF93DF9318
:1001A0007C01862F122F642F0E943301112371F0DE
:1001B000E7011150012F10E00F5F1F4F0E0D1F1DA3
:1001C00089910E94ED00C017D107D1F7DF91CF913F
:1001D0001F910F91FF90EF900895982F907F95B900
:1001E000289A2A9A2AE62A95F1F700C02A98289890
:1001F0009AE69A95F1F700C020E1829FC001112490
:1002000085B9289A2A9A8AE68A95F1F700C02A9831
:1002100028989AE69A95F1F700C00895982F907F54
:1002200095B92A9AEFECF7E03197F1F700C000009A
:100230002A98EFECF7E03197F1F700C00000F0E109
:100240008F9FC001112485B92A9A8FEC97E00197FE
:10025000F1F700C000002A98EFECF7E03197F1F7D2
:1002600000C000000895623031F0633031F0613039
:1002700029F4805C03C08C5E01C08C5A80680E94A7
:100280000E010895CF93DF9300D0CDB7DEB78FEF87
:100290008AB91BB80E9466011A8219820E946D01F8
:1002A0009A83898328E030E041E050E061E070E02B
:1002B000CE0101960E94CA002FEF81EE94E02150FA
:1002C00080409040E1F700C00000E8CF60E070E0BF
:1002D00080E890E00E94A10008950E94B1000E9471
:1002E000B700892BE1F70E94C0000E94C6006AE0B7
:1002F00070E00E947D01CB01089597FB072E16F454
:10030000009407D077FD09D00E94910107FC05D029
:100310003EF4909581959F4F0895709561957F4F1C
:100320000895AA1BBB1B51E107C0AA1FBB1FA6173C
:10033000B70710F0A61BB70B881F991F5A95A9F78E
:0E03400080959095BC01CD010895F894FFCFF3
:00000001FF
