:100000000C9454000C9469000C9469000C946900E1
:100010000C9469000C9469000C9469000C946900BC
:100020000C9469000C9469000C9469000C946900AC
:100030000C9469000C9469000C9469000C9469009C
:100040000C9469000C9469000C9469000C9469008C
:100050000C9469000C9469000C9469000C9469007C
:100060000C9469000C946900001F000000001F0040
:10007000001F101010101F00001F181818181F0064
:10008000001F1C1C1C1C1F00001F1E1E1E1E1F000C
:10009000001F1F1F1F1F1F0003070F1F0F07030055
:1000A000181C1E1F1E1C180011241FBECFEFD8E005
:1000B000DEBFCDBF11E0A0E0B1E0E8E5FAE002C0AC
:1000C00005900D92A630B107D9F70E94A0020C94BA
:1000D0002A050C94000010927A0010927C0008957A
:1000E000EAE7F0E08081806880830895803191059F
:1000F00029F14CF484309105A9F088309105C1F0C4
:100100000297A1F509C08034910521F1803891054D
:1001100039F1809759F518C0EAE7F0E080818160F5
:1001200080830895EAE7F0E080818260808308950B
:10013000EAE7F0E08081836080830895EAE7F0E0F9
:100140008081846080830895EAE7F0E080818560A3
:1001500080830895EAE7F0E08081866080830895D7
:10016000EAE7F0E08081876080830895EAE7F0E0C5
:10017000808180830895ECE7F0E09081892B808373
:1001800008950F931F93CF93DF938C01EB010E948F
:100190006B0081E080937E000E947000C8010E9485
:1001A0007600CE010E94BB00DF91CF911F910F918D
:1001B0000895EAE7F0E0808180648083089580916B
:1001C0007A0082958F7091E08927817090E0089580
:1001D000EAE7F0E080818061808308956091780093
:1001E0007091790080E090E00E94300320E030E0E0
:1001F00040EA50E40E94F30320E030E040E85AE394
:100200000E94F3030895EF92FF920F931F93CF93F1
:10021000DF937C01862F122F642F0E94700111231F
:1002200071F0E7011150012F10E00F5F1F4F0E0D0D
:100230001F1D89910E942601C017D107D1F7DF91B8
:10024000CF911F910F91FF90EF900895982F907F7D
:1002500095B9289A2A9A2AE62A95F1F700C02A9891
:1002600028989AE69A95F1F700C020E1829FC00194
:10027000112485B9289A2A9A8AE68A95F1F700C04E
:100280002A9828989AE69A95F1F700C00895982F31
:10029000907F95B92A9AEFECF7E03197F1F700C01B
:1002A00000002A98EFECF7E03197F1F700C000006A
:1002B000F0E18F9FC001112485B92A9A8FEC97E055
:1002C0000197F1F700C000002A98EFECF7E03197B2
:1002D000F1F700C00000089581E00E9447010895F1
:1002E000623031F0633031F0613029F4805C03C05A
:1002F0008C5E01C08C5A80680E9447010895FF926D
:100300000F931F93CF93DF93660F660F660F6064A2
:10031000EC016894FF24F3F8F60EFE01049111E05D
:10032000160F862F0E944701802F0E9426012196DA
:10033000612F1F11F2CFDF91CF911F910F91FF908D
:1003400008951F93CF93DF938FE295E70197F1F71D
:1003500000C0000015B815B884B1806F84B984B1AD
:10036000876084B980E385B92A9AEFECF7E031978A
:10037000F1F700C000002A98EFECF7E03197F1F7B1
:1003800000C0000085B92A9A8FEC97E00197F1F739
:1003900000C000002A98EFECF7E03197F1F700C0B9
:1003A000000080E285B92A9A8FEC97E00197F1F777
:1003B00000C000002A98EFECF7E03197F1F700C099
:1003C000000088E20E9447018CE00E944701C8E6D5
:1003D000D0E060E011E0160FCE010E947F01289668
:1003E000612F1830B9F7DF91CF911F9108950F93C6
:1003F0001F93CF93DF938C01EB014AE00E94F50439
:100400000A30110524F48881898380E38883DF9191
:10041000CF911F910F910895CF92DF92EF92FF92AB
:100420000F931F93CF93DF9300D000D000D0CDB7B0
:10043000DEB78A0120E330E33A832983AE014D5FC2
:100440005F4F0E94BF036B017C016B817C818D81BA
:100450009E810E94FA02DC01CB01BE016F5F7F4FDB
:100460000E94F7018981F80180838A81818320E0DD
:1004700030E048EC52E4C701B6010E94F3036B017F
:100480007C0120E030E040E251E40E94F502882344
:100490009CF480E3F8018383C701B6010E94FA024D
:1004A000DC01CB014AE0BE016F5F7F4F0E94F50483
:1004B0008981F801848311C0C701B6010E94FA0244
:1004C000DC01CB014AE0BE016F5F7F4F0E94F50463
:1004D0008981F80183838A81848326960FB6F894F4
:1004E000DEBF0FBECDBFDF91CF911F910F91FF9067
:1004F000EF90DF90CF900895CF93DF9300D000D09E
:100500001F92CDB7DEB725E0E0E0F1E0DE01119605
:1005100001900D922A95E1F7AE014F5F5F4F0E9467
:100520000C0225E040E060E0CE0101960E9403014C
:100530000F900F900F900F900F90DF91CF91089533
:100540000E94A1010E94B4020E94BB020E947C0290
:100550002FEF80E792E0215080409040E1F700C00B
:1005600000000E946C01F0CF60E070E080E490E059
:100570000E94C1000895CF92DF92EF92FF920E94F5
:10058000D9000E94DF00892BE1F70E94E8000E9459
:10059000EE0020E030E048EC52E40E94F3036B01EF
:1005A0007C0120E030E048E452E40E94BA031816CF
:1005B0006CF020E030E0A901C701B6010E94F5020D
:1005C000882364F4C12CD12C760108C00F2EC12CD5
:1005D000D12CF8E4EF2EF2E4FF2EF02DC701B60186
:1005E000FF90EF90DF90CF9008950E946D0308F484
:1005F00081E008950E9401036894B1110C94B40342
:1006000008950E94990388F09F5798F0B92F992771
:10061000B751B0F0E1F0660F771F881F991F1AF0ED
:10062000BA95C9F714C0B13091F00E94B303B1E09C
:1006300008950C94B303672F782F8827B85F39F09B
:10064000B93FCCF3869577956795B395D9F73EF486
:1006500090958095709561957F4F8F4F9F4F08952E
:10066000E89409C097FB3EF490958095709561954C
:100670007F4F8F4F9F4F9923A9F0F92F96E9BB2702
:100680009395F695879577956795B795F111F8CF7E
:10069000FAF4BB0F11F460FF1BC06F5F7F4F8F4FE9
:1006A0009F4F16C0882311F096E911C0772321F0DF
:1006B0009EE8872F762F05C0662371F096E8862F77
:1006C00070E060E02AF09A95660F771F881FDAF7CE
:1006D000880F9695879597F90895990F0008550FFB
:1006E000AA0BE0E8FEEF16161706E807F907C0F0B8
:1006F00012161306E407F50798F0621B730B840BC0
:10070000950B39F40A2661F0232B242B252B21F499
:1007100008950A2609F4A140A6958FEF811D811D39
:10072000089557FD9058440F551F59F05F3F71F0E1
:100730004795880F97FB991F61F09F3F79F0879548
:100740000895121613061406551FF2CF4695F1DFD1
:1007500008C0161617061806991FF1CF8695710561
:10076000610508940895E894BB2766277727CB0195
:1007700097F908950E946D0308F48FEF0895FA0128
:10078000DC01AA0FBB1F9B01AC01BF5728F4222735
:1007900033274427507820C0B75190F4AB2F002462
:1007A000469537952795011CA395D2F3002071F04B
:1007B000220F331F441FB395DAF30ED00C9460045C
:1007C00061307105A0E88A07B94630F49B01AC019D
:1007D0006627772788279078309621F02083318309
:1007E0004283538308950E9406040C94E4040E94FB
:1007F000D60438F00E94DD0420F0952311F00C940B
:10080000CD040C94D30411240C94B4030E949103DE
:1008100070F3959FC1F3950F50E0551F629FF00153
:10082000729FBB27F00DB11D639FAA27F00DB11D6C
:10083000AA1F649F6627B00DA11D661F829F2227F5
:10084000B00DA11D621F739FB00DA11D621F839F7C
:10085000A00D611D221F749F3327A00D611D231F52
:10086000849F600D211D822F762F6A2F11249F57A0
:1008700050409AF0F1F088234AF0EE0FFF1FBB1FA3
:10088000661F771F881F91505040A9F79E3F510562
:1008900080F00C94CD040C94B4035F3FE4F3983ED5
:1008A000D4F3869577956795B795F795E7959F5F0C
:1008B000C1F7FE2B880F911D9695879597F908959E
:1008C0005058BB27AA270E9478040C94E4040E9485
:1008D000D60438F00E94DD0420F039F49F3F19F46B
:1008E00026F40C94D3040EF4E095E7FB0C94CD04AD
:1008F000E92F0E94910358F3BA1762077307840720
:10090000950720F079F4A6F50C94B3030EF4E09566
:100910000B2EBA2FA02D0B01B90190010C01CA01B9
:10092000A0011124FF27591B99F0593F50F4503E64
:1009300068F11A16F040A22F232F342F4427585F56
:10094000F3CF469537952795A795F0405395C9F76E
:100950007EF41F16BA0B620B730B840BBAF0915026
:10096000A1F0FF0FBB1F661F771F881FC2F70EC0C5
:10097000BA0F621F731F841F48F487957795679598
:10098000B795F7959E3F08F0B0CF9395880F08F084
:100990009927EE0F97958795089597F99F6780E8B7
:1009A00070E060E008959FEF80EC089500240A94C1
:1009B0001616170618060906089500240A9412163A
:1009C0001306140605060895092E0394000C11F46D
:1009D000882352F0BB0F40F4BF2B11F460FF04C01A
:1009E0006F5F7F4F8F4F9F4F0895BB274A3031F481
:1009F000992322F4BDE2909581959F4F0C940105B7
:100A0000BB27FB015527AA27880F991FAA1FA417E8
:100A100010F0A41B83955051B9F7A05DAA3308F0DC
:100A2000A95DA193009779F7B111B1931192CB0110
:100A30000C941A05DC01FC01672F71917723E1F713
:100A4000329704C07C916D9370836291AE17BF079B
:080A5000C8F30895F894FFCFEC
:060A580030302E303000AA
:00000001FF
