S01B0000436F6E74726F6C5F54656D70657261747572612E737265633F
S11300000C9454000C9469000C9469000C946900DD
S11300100C9469000C9469000C9469000C946900B8
S11300200C9469000C9469000C9469000C946900A8
S11300300C9469000C9469000C9469000C94690098
S11300400C9469000C9469000C9469000C94690088
S11300500C9469000C9469000C9469000C94690078
S11300600C9469000C946900001F000000001F003C
S1130070001F101010101F00001F181818181F0060
S1130080001F1C1C1C1C1F00001F1E1E1E1E1F0008
S1130090001F1F1F1F1F1F0003070F1F0F07030051
S11300A0181C1E1F1E1C180011241FBECFEFD8E001
S11300B0DEBFCDBF11E0A0E0B1E0E0EFF4E002C0AC
S11300C005900D92A030B107D9F70E9416020C9446
S11300D076020C94000010927A0010927C0008952D
S11300E0EAE7F0E08081806880830895803191059B
S11300F029F14CF484309105A9F088309105C1F0C0
S11301000297A1F509C08034910521F18038910549
S113011039F1809759F518C0EAE7F0E080818160F1
S113012080830895EAE7F0E0808182608083089507
S1130130EAE7F0E08081836080830895EAE7F0E0F5
S11301408081846080830895EAE7F0E0808185609F
S113015080830895EAE7F0E08081866080830895D3
S1130160EAE7F0E08081876080830895EAE7F0E0C1
S1130170808180830895ECE7F0E09081892B80836F
S113018008950F931F93CF93DF938C01EB010E948B
S11301906B0081E080937E000E947000C8010E9481
S11301A07600CE010E94BB00DF91CF911F910F9189
S11301B00895EAE7F0E08081806480830895809167
S11301C07A0082958F7091E08927817090E008957C
S11301D0EAE7F0E08081806180830895809178006F
S11301E09091790090E00895EF92FF920F931F93FE
S11301F0CF93DF937C01862F122F642F0E9461011D
S1130200112371F0E7011150012F10E00F5F1F4F10
S11302100E0D1F1D89910E941701C017D107D1F738
S1130220DF91CF911F910F91FF90EF900895982F38
S1130230907F95B9289A2A9A2AE62A95F1F700C060
S11302402A9828989AE69A95F1F700C020E1829FAF
S1130250C001112485B9289A2A9A8AE68A95F1F769
S113026000C02A9828989AE69A95F1F700C0089554
S1130270982F907F95B92A9AEFECF7E03197F1F730
S113028000C000002A98EFECF7E03197F1F700C0C6
S11302900000F0E18F9FC001112485B92A9A8FECE8
S11302A097E00197F1F700C000002A98EFECF7E01F
S11302B03197F1F700C00000089581E00E943801F1
S11302C00895623031F0633031F0613029F4805C9C
S11302D003C08C5E01C08C5A80680E943801089566
S11302E0FF920F931F93CF93DF93660F660F660FF2
S11302F06064EC016894FF24F3F8F60EFE010491A7
S113030011E0160F862F0E943801802F0E941701DA
S11303102196612F1F11F2CFDF91CF911F910F9181
S1130320FF9008951F93CF93DF938FE295E7019792
S1130330F1F700C0000015B815B884B1806F84B916
S113034084B1876084B980E385B92A9AEFECF7E039
S11303503197F1F700C000002A98EFECF7E03197ED
S1130360F1F700C0000085B92A9A8FEC97E0019755
S1130370F1F700C000002A98EFECF7E03197F1F7AD
S113038000C0000080E285B92A9A8FEC97E00197BB
S1130390F1F700C000002A98EFECF7E03197F1F78D
S11303A000C0000088E20E9438018CE00E943801FD
S11303B0C8E6D0E060E011E0160FCE010E947001A3
S11303C02896612F1830B9F7DF91CF911F910895C6
S11303D01F93CF93DF9300D01F92CDB7DEB7182FB2
S11303E080E390E3A0E089839A83AB834AE0BE0173
S11303F06F5F7F4F812F90E00E9441021A3040F4DA
S113040021E040E060E0CE0101960E94F40007C0C4
S113041022E040E060E0CE0101960E94F4000F90DB
S11304200F900F90DF91CF911F9108950E94920138
S11304300E942A020E9431020E94E8012FEF80E705
S113044092E0215080409040E1F700C000000E94FB
S11304505D01F0CF60E070E080E490E00E94C100B4
S113046008950E94D9000E94DF00892BE1F70E94C1
S1130470E8000E94EE0099230CF401969595879567
S11304800895BB274A3031F4992322F4BDE29095B4
S113049081959F4F0C944D02BB27FB015527AA273A
S11304A0880F991FAA1FA41710F0A41B83955051FD
S11304B0B9F7A05DAA3308F0A95DA193009779F775
S11304C0B111B1931192CB010C946602DC01FC01D1
S11304D0672F71917723E1F7329704C07C916D9374
S11304E070836291AE17BF07C8F30895F894FFCFE5
S9030000FC
