:100000000C9454000C9471000C9471000C947100C9
:100010000C9471000C9471000C9471000C9471009C
:100020000C9471000C9471000C9471000C9471008C
:100030000C9471000C9471000C9471000C9471007C
:100040000C9471000C9471000C9471000C9471006C
:100050000C9471000C9471000C9471000C9471005C
:100060000C9471000C947100001F000000001F0030
:10007000001F101010101F00001F181818181F0064
:10008000001F1C1C1C1C1F00001F1E1E1E1E1F000C
:10009000001F1F1F1F1F1F0003070F1F0F07030055
:1000A000181C1E1F1E1C180011241FBECFEFD8E005
:1000B000DEBFCDBF11E0A0E0B1E0EEECFAE002C09F
:1000C00005900D92AA34B107D9F721E0AAE4B1E076
:1000D00001C01D92AE34B207E1F70E9460020C9499
:1000E00065050C94000083E08AB91BB8089581E08F
:1000F0008BB908955898089582E08BB9089559985E
:10010000089510927A0010927C000895EAE7F0E0DA
:1001100080818068808308958031910529F14CF4B5
:1001200084309105A9F088309105C1F00297A1F5BE
:1001300009C08034910521F18038910539F180970B
:1001400059F518C0EAE7F0E0808181608083089566
:10015000EAE7F0E08081826080830895EAE7F0E0DA
:100160008081836080830895EAE7F0E08081846085
:1001700080830895EAE7F0E08081856080830895B8
:10018000EAE7F0E08081866080830895EAE7F0E0A6
:100190008081876080830895EAE7F0E08081808332
:1001A0000895ECE7F0E09081892B808308950F9308
:1001B0001F93CF93DF938C01EB010E94810081E0BC
:1001C00080937E000E948600C8010E948C00CE01B0
:1001D0000E94D100DF91CF911F910F910895EAE71E
:1001E000F0E0808180648083089580917A00829518
:1001F0008F7091E08927817090E00895EAE7F0E040
:100200008081806180830895809178009091790049
:1002100090E008959F938F9387E391E09F938F934E
:1002200080E091E09F938F930E948D020F900F903A
:100230000F900F900F900F900895CF93DF930E942F
:100240007D02C82FD0E0F894CE010E940A01789474
:1002500080913401909135018C179D072CF00E94FC
:1002600077000E947F0010C080913201909133018D
:10027000C817D9072CF00E947C000E947A0004C0A5
:100280000E947F000E947A00DF91CF91089580E064
:1002900091E00E94500181E291E00E945501089591
:1002A00090934D0180934C01089590934B0180935E
:1002B0004A010895CF9360E080E00E94D9018091C7
:1002C0003601882379F0C0E0E0914A01F0914B01BA
:1002D000EC0FF11D80810E949301CF5F8091360168
:1002E000C81790F3CF910895CF9361E080E00E940A
:1002F000D90180913601882379F0C0E0E0914C016A
:10030000F0914D01EC0FF11D80810E949301CF5FB0
:1003100080913601C81790F3CF9108950E945A0139
:100320000E9474010895982F907F95B9289A2A9A6F
:100330002AE62A95F1F700C02A9828989AE69A9515
:10034000F1F700C020E1829FC001112485B9289AED
:100350002A9A8AE68A95F1F700C02A9828989AE6A0
:100360009A95F1F700C00895982F907F95B92A9A31
:10037000EFECF7E03197F1F700C000002A98EFECBE
:10038000F7E03197F1F700C00000F0E18F9FC00166
:10039000112485B92A9A8FEC97E00197F1F700C0F4
:1003A00000002A98EFECF7E03197F1F700C0000069
:1003B0000895623031F0633031F0613029F4805CAF
:1003C00003C08C5E01C08C5A80680E94B4010895FD
:1003D000FF920F931F93CF93DF93660F660F660F05
:1003E0006064EC016894FF24F3F8F60EFE010491BA
:1003F00011E0160F862F0E94B401802F0E949301F6
:100400002196612F1F11F2CFDF91CF911F910F9194
:10041000FF9008951F93CF93DF938FE295E70197A5
:10042000F1F700C0000015B815B884B1806F84B929
:1004300084B1876084B980E385B92A9AEFECF7E04C
:100440003197F1F700C000002A98EFECF7E0319700
:10045000F1F700C0000085B92A9A8FEC97E0019768
:10046000F1F700C000002A98EFECF7E03197F1F7C0
:1004700000C0000080E285B92A9A8FEC97E00197CE
:10048000F1F700C000002A98EFECF7E03197F1F7A0
:1004900000C0000088E20E94B4018CE00E94B40118
:1004A000C8E6D0E060E011E0160FCE010E94E8013E
:1004B0002896612F1830B9F7DF91CF911F910895D9
:1004C0000E940A020E9476020E9447010E94730065
:1004D0000E941D010E948E012FEF80E792E02150C3
:1004E00080409040E1F700C00000F2CF60E070E093
:1004F00080E490E00E94D70008950E94EF000E94DF
:10050000F500892BE1F70E94FE000E940401992367
:100510000CF40196959587950895AEE0B0E0E3E977
:10052000F2E00C943C050D891E8986E08C831A83C9
:1005300009838FEF9FE79E838D83AE01475E5F4FF8
:100540006F89788DCE0101960E94B0022F81388587
:10055000F801E20FF31F10822E96E4E00C94580588
:10056000ACE0B0E0E6EBF2E00C942E057C016B0110
:100570008A01FC0117821682838181FFBDC1CE01F1
:1005800001964C01F7019381F60193FD859193FF4C
:1005900081916F01882309F4ABC1853239F493FD51
:1005A000859193FF81916F01853229F4B70190E025
:1005B0000E949804E7CF512C312C20E02032A0F487
:1005C0008B3269F030F4803259F0833269F4206163
:1005D0002CC08D3239F0803339F4216026C022607E
:1005E000246023C0286021C027FD27C030ED380FCC
:1005F0003A3078F426FF06C0FAE05F9E300D1124F1
:10060000532E13C08AE0389E300D1124332E206201
:100610000CC08E3221F426FD6BC1206406C08C36DE
:1006200011F4206802C0883641F4F60193FD8591EB
:1006300093FF81916F018111C1CF982F9F7D9554B8
:10064000933028F40C5F1F4FFFE3F9830DC083360E
:1006500031F0833771F0833509F05BC022C0F801B7
:10066000808189830E5F1F4F44244394512C540191
:1006700015C03801F2E06F0E711CF801A080B18046
:1006800026FF03C0652D70E002C06FEF7FEFC5014C
:100690002C870E948D042C0183012C852F77222E1C
:1006A00017C03801F2E06F0E711CF801A080B18014
:1006B00026FF03C0652D70E002C06FEF7FEFC5011C
:1006C0002C870E9482042C012C852068222E830115
:1006D00023FC1BC0832D90E048165906B0F4B701E7
:1006E00080E290E00E9498043A94F4CFF50127FC50
:1006F000859127FE81915F01B70190E00E949804E7
:1007000031103A94F1E04F1A51084114510471F735
:10071000E5C0843611F0893639F5F80127FF07C0A6
:1007200060817181828193810C5F1F4F08C060815D
:100730007181072E000C880B990B0E5F1F4F2F76CF
:10074000722E97FF09C090958095709561957F4FA7
:100750008F4F9F4F2068722E2AE030E0A4010E9444
:10076000D004A82EA81844C0853729F42F7EB22EB5
:100770002AE030E025C0F22FF97FBF2E8F36C1F07E
:1007800018F4883579F0B4C0803719F0883721F033
:10079000AFC02F2F2061B22EB4FE0DC08B2D846010
:1007A000B82E09C024FF0AC09F2F9660B92E06C03C
:1007B00028E030E005C020E130E002C020E132E076
:1007C000F801B7FE07C060817181828193810C5F5F
:1007D0001F4F06C06081718180E090E00E5F1F4F67
:1007E000A4010E94D004A82EA818FB2DFF777F2E0D
:1007F00076FE0BC0372D3E7FA51450F474FE0AC060
:1008000072FC08C0372D3E7E05C0BA2C372D03C0C0
:10081000BA2C01C0B52C34FF0DC0FE01EA0DF11D4C
:100820008081803311F4397E09C032FF06C0B39451
:10083000B39404C0832F867809F0B39433FD13C0BA
:1008400030FF06C05A2CB31418F4530C5B18B32CA9
:10085000B31468F4B70180E290E03C870E949804EA
:10086000B3943C85F5CFB31410F43B1801C0312C80
:1008700034FF12C0B70180E390E03C870E949804E7
:100880003C8532FF17C031FD03C088E790E002C00D
:1008900088E590E0B7010CC0832F867859F031FFCE
:1008A00002C08BE201C080E237FD8DE2B70190E02B
:1008B0000E949804A51438F4B70180E390E00E94E8
:1008C00098045A94F7CFAA94F401EA0DF11D80819F
:1008D000B70190E00E949804A110F5CF332009F4ED
:1008E00051CEB70180E290E00E9498043A94F6CF8E
:1008F000F7018681978102C08FEF9FEF2C96E2E18E
:100900000C944A05FC010590615070400110D8F725
:10091000809590958E0F9F1F0895FC016150704047
:1009200001900110D8F7809590958E0F9F1F089524
:100930000F931F93CF93DF93FB01238121FD03C00E
:100940008FEF9FEF28C022FF16C046815781248178
:1009500035814217530744F4A081B1819D012F5F77
:100960003F4F318320838C93268137812F5F3F4F08
:100970003783268310C0EB01092F182F0084F185DF
:10098000E02D0995892BE1F68E819F8101969F8349
:100990008E83812F902FDF91CF911F910F9108951A
:1009A000FA01AA27283051F1203181F1E8946F93A0
:1009B0006E7F6E5F7F4F8F4F9F4FAF4FB1E03ED046
:1009C000B4E03CD0670F781F891F9A1FA11D680FE4
:1009D000791F8A1F911DA11D6A0F711D811D911D17
:1009E000A11D20D009F468943F912AE0269F11248C
:1009F0003019305D3193DEF6CF010895462F4770F0
:100A0000405D4193B3E00FD0C9F7F6CF462F4F704A
:100A1000405D4A3318F0495D31FD4052419302D0A8
:100A2000A9F7EACFB4E0A69597958795779567954E
:100A3000BA95C9F700976105710508959B01AC014E
:100A40000A2E06945795479537952795BA95C9F775
:100A5000620F731F841F951FA01D08952F923F9250
:100A60004F925F926F927F928F929F92AF92BF92BE
:100A7000CF92DF92EF92FF920F931F93CF93DF936A
:100A8000CDB7DEB7CA1BDB0B0FB6F894DEBF0FBEC7
:100A9000CDBF09942A88398848885F846E847D8414
:100AA0008C849B84AA84B984C884DF80EE80FD8016
:100AB0000C811B81AA81B981CE0FD11D0FB6F8948C
:0E0AC000DEBF0FBECDBFED010895F894FFCF4D
:100ACE002020202020202020202020202020202018
:100ADE002020202020202020202020202020202008
:100AEE000054656D70657261747572613A202020D4
:100AFE002000190011001025642020202020202025
:0A0B0E0020202020202020200000DD
:00000001FF
