:100000000C9454000C9471000C9471000C947100C9
:100010000C9471000C9471000C9471000C9471009C
:100020000C9471000C9471000C9471000C9471008C
:100030000C9471000C9471000C9469010C94710083
:100040000C9471000C9471000C9471000C9471006C
:100050000C9471000C9471000C9471000C9471005C
:100060000C9471000C947100001F000000001F0030
:10007000001F101010101F00001F181818181F0064
:10008000001F1C1C1C1C1F00001F1E1E1E1E1F000C
:10009000001F1F1F1F1F1F0003070F1F0F07030055
:1000A000181C1E1F1E1C180011241FBECFEFD8E005
:1000B000DEBFCDBF11E0A0E0B1E0E4E2F3E002C0BA
:1000C00005900D92A030B107D9F721E0A0E0B1E092
:1000D00001C01D92A330B207E1F70E945E010C94AB
:1000E00090010C940000982F907F95B995B1916084
:1000F00095B995B1946095B92AE62A95F1F700C0B3
:1001000095B19B7F95B995B19E7F95B99AE69A95E1
:10011000F1F700C020E1829FC001112485B985B1AB
:10012000816085B985B1846085B98AE68A95F1F7E1
:1001300000C085B18B7F85B985B18E7F85B99AE680
:100140009A95F1F700C00895982F907F95B995B1D1
:10015000946095B9EFECF7E03197F1F700C000003B
:1001600095B19B7F95B9EFECF7E03197F1F700C0BF
:100170000000F0E18F9FC001112485B985B1846032
:1001800085B98FEC97E00197F1F700C0000085B1C9
:100190008B7F85B9EFECF7E03197F1F700C00000F5
:1001A0000895EF92FF920F931F93CF93DF937C01FB
:1001B000862F90E0880F991F880F991F880F991F2D
:1001C0008064C0E0D0E00DC0F701EC0FFD1F14917A
:1001D00001E0080F0E94A400812F0E947300219665
:1001E000802FC830D10580F3DF91CF911F910F91FF
:1001F000FF90EF900895CF93DF938FE295E70197FB
:10020000F1F700C0000015B815B884B1806F84B94B
:1002100084B1876084B990E395B985B1846085B96C
:10022000EFECF7E03197F1F700C0000085B18B7F6C
:1002300085B9EFECF7E03197F1F700C0000095B910
:1002400085B1846085B98FEC97E00197F1F700C024
:10025000000085B18B7F85B9EFECF7E03197F1F7BE
:1002600000C0000080E285B985B1846085B98FEC5B
:1002700097E00197F1F700C0000085B18B7F85B949
:10028000EFECF7E03197F1F700C0000088E20E9440
:10029000A4008CE00E94A40060E0C0E00AC0D1E0AD
:1002A000D60F8C2F90E088599F4F0E94D100C85FD5
:1002B0006D2FC034A0F3DF91CF9108950E94FB0011
:1002C0008AEF87BD82E084BD85BD80936E007894FF
:1002D000FFCF1F920F920FB60F9211242F938F937F
:1002E0009F938091000190910101019690930101EB
:1002F000809300018091000190910101843F914021
:1003000039F481E080930201109201011092000102
:100310009F918F912F910F900FBE0F901F90189566
:04032000F894FFCF7F
:00000001FF
