:100000000C9434000C9451000C9451000C94510049
:100010000C9451000C9451000C9451000C9451001C
:100020000C9451000C9451000C9451000C9451000C
:100030000C9451000C9451000C94FE000C9451004F
:100040000C9451000C9451000C9451000C945100EC
:100050000C9451000C9451000C9451000C945100DC
:100060000C9451000C94510011241FBECFEFD8E026
:10007000DEBFCDBF11E0A0E0B1E0E8E4F2E002C0F5
:1000800005900D92A230B107D9F721E0A2E0B1E0CE
:1000900001C01D92A930B207E1F70E94F3000C9451
:1000A00022010C940000CF9360E080E00E94E40005
:1000B000C0E00AC0E0910501F0910601EC0FF11DCE
:1000C00080810E948600CF5F80910001C81790F365
:1000D000CF910895CF9361E080E00E94E400C0E0FA
:1000E0000AC0E0910701F0910801EC0FF11D808139
:1000F0000E948600CF5F80910001C81790F3CF91D6
:1001000008950E9453000E946A000895982F907FDE
:1001100095B995B1916095B995B1946095B92AE674
:100120002A95F1F700C095B19B7F95B995B19E7F57
:1001300095B99AE69A95F1F700C020E1829FC00137
:10014000112485B985B1816085B985B1846085B98F
:100150008AE68A95F1F700C085B18B7F85B985B1B4
:100160008E7F85B99AE69A95F1F700C00895982F89
:10017000907F95B995B1946095B9EFECF7E0319720
:10018000F1F700C0000095B19B7F95B9EFECF7E067
:100190003197F1F700C00000F0E18F9FC0011124FA
:1001A00085B985B1846085B98FEC97E00197F1F747
:1001B00000C0000085B18B7F85B9EFECF7E0319787
:1001C000F1F700C000000895623031F0633031F083
:1001D000613029F4805C03C08C5E01C08C5A806859
:1001E0000E94B70008958AEF87BD82E084BD85BD77
:1001F00080936E0078940E948100FDCF1F920F9231
:100200000FB60F9211248F939F93809102019091CA
:1002100003010196909303018093020180910201F2
:1002200090910301C29739F481E080930401109208
:100230000301109202019F918F910F900FBE0F90BA
:080240001F901895F894FFCF00
:020248001000A4
:00000001FF
